{
    "contractName": "socioContract",
    "abi": [
        {
            "inputs": [
                {
                    "internalType": "address",
                    "name": "_execution",
                    "type": "address"
                },
                {
                    "internalType": "address",
                    "name": "_socioTokens",
                    "type": "address"
                },
                {
                    "internalType": "address",
                    "name": "_oracle",
                    "type": "address"
                },
                {
                    "internalType": "string",
                    "name": "_jobId",
                    "type": "string"
                },
                {
                    "internalType": "address",
                    "name": "_link",
                    "type": "address"
                }
            ],
            "stateMutability": "nonpayable",
            "type": "constructor"
        },
        {
            "anonymous": false,
            "inputs": [
                {
                    "indexed": true,
                    "internalType": "bytes32",
                    "name": "id",
                    "type": "bytes32"
                }
            ],
            "name": "ChainlinkCancelled",
            "type": "event"
        },
        {
            "anonymous": false,
            "inputs": [
                {
                    "indexed": true,
                    "internalType": "bytes32",
                    "name": "id",
                    "type": "bytes32"
                }
            ],
            "name": "ChainlinkFulfilled",
            "type": "event"
        },
        {
            "anonymous": false,
            "inputs": [
                {
                    "indexed": true,
                    "internalType": "bytes32",
                    "name": "id",
                    "type": "bytes32"
                }
            ],
            "name": "ChainlinkRequested",
            "type": "event"
        },
        {
            "anonymous": false,
            "inputs": [
                {
                    "indexed": true,
                    "internalType": "address",
                    "name": "previousOwner",
                    "type": "address"
                },
                {
                    "indexed": true,
                    "internalType": "address",
                    "name": "newOwner",
                    "type": "address"
                }
            ],
            "name": "OwnershipTransferred",
            "type": "event"
        },
        {
            "anonymous": false,
            "inputs": [
                {
                    "indexed": true,
                    "internalType": "bytes32",
                    "name": "requestId",
                    "type": "bytes32"
                }
            ],
            "name": "RequestFulfilled",
            "type": "event"
        },
        {
            "stateMutability": "payable",
            "type": "fallback"
        },
        {
            "inputs": [],
            "name": "addBalance",
            "outputs": [],
            "stateMutability": "payable",
            "type": "function"
        },
        {
            "inputs": [
                {
                    "internalType": "address",
                    "name": "_user",
                    "type": "address"
                }
            ],
            "name": "checkUserBalance",
            "outputs": [
                {
                    "internalType": "uint256",
                    "name": "",
                    "type": "uint256"
                }
            ],
            "stateMutability": "view",
            "type": "function"
        },
        {
            "inputs": [
                {
                    "internalType": "uint256",
                    "name": "",
                    "type": "uint256"
                }
            ],
            "name": "claims",
            "outputs": [
                {
                    "internalType": "string",
                    "name": "",
                    "type": "string"
                }
            ],
            "stateMutability": "view",
            "type": "function"
        },
        {
            "inputs": [
                {
                    "internalType": "string",
                    "name": "id",
                    "type": "string"
                }
            ],
            "name": "createIdentity",
            "outputs": [],
            "stateMutability": "nonpayable",
            "type": "function"
        },
        {
            "inputs": [
                {
                    "internalType": "string",
                    "name": "_proposal",
                    "type": "string"
                }
            ],
            "name": "createProposal",
            "outputs": [
                {
                    "internalType": "uint256",
                    "name": "",
                    "type": "uint256"
                }
            ],
            "stateMutability": "nonpayable",
            "type": "function"
        },
        {
            "inputs": [
                {
                    "internalType": "uint256",
                    "name": "proposalId",
                    "type": "uint256"
                },
                {
                    "internalType": "uint8",
                    "name": "_code",
                    "type": "uint8"
                },
                {
                    "internalType": "uint256",
                    "name": "_value",
                    "type": "uint256"
                }
            ],
            "name": "executeProposal",
            "outputs": [],
            "stateMutability": "payable",
            "type": "function"
        },
        {
            "inputs": [
                {
                    "internalType": "bytes32",
                    "name": "requestId",
                    "type": "bytes32"
                },
                {
                    "internalType": "string",
                    "name": "_claimId",
                    "type": "string"
                }
            ],
            "name": "fulfill",
            "outputs": [],
            "stateMutability": "nonpayable",
            "type": "function"
        },
        {
            "inputs": [],
            "name": "numProposals",
            "outputs": [
                {
                    "internalType": "uint256",
                    "name": "",
                    "type": "uint256"
                }
            ],
            "stateMutability": "view",
            "type": "function"
        },
        {
            "inputs": [],
            "name": "owner",
            "outputs": [
                {
                    "internalType": "address",
                    "name": "",
                    "type": "address"
                }
            ],
            "stateMutability": "view",
            "type": "function"
        },
        {
            "inputs": [
                {
                    "internalType": "uint256",
                    "name": "",
                    "type": "uint256"
                }
            ],
            "name": "proposals",
            "outputs": [
                {
                    "internalType": "string",
                    "name": "proposal",
                    "type": "string"
                },
                {
                    "internalType": "uint256",
                    "name": "deadline",
                    "type": "uint256"
                },
                {
                    "internalType": "uint256",
                    "name": "yayvotes",
                    "type": "uint256"
                },
                {
                    "internalType": "uint256",
                    "name": "nayvotes",
                    "type": "uint256"
                },
                {
                    "internalType": "bool",
                    "name": "executed",
                    "type": "bool"
                }
            ],
            "stateMutability": "view",
            "type": "function"
        },
        {
            "inputs": [],
            "name": "purchaseProperty",
            "outputs": [],
            "stateMutability": "payable",
            "type": "function"
        },
        {
            "inputs": [],
            "name": "renounceOwnership",
            "outputs": [],
            "stateMutability": "nonpayable",
            "type": "function"
        },
        {
            "inputs": [
                {
                    "internalType": "address",
                    "name": "newOwner",
                    "type": "address"
                }
            ],
            "name": "transferOwnership",
            "outputs": [],
            "stateMutability": "nonpayable",
            "type": "function"
        },
        {
            "inputs": [],
            "name": "treasuryBalance",
            "outputs": [
                {
                    "internalType": "uint256",
                    "name": "",
                    "type": "uint256"
                }
            ],
            "stateMutability": "view",
            "type": "function"
        },
        {
            "inputs": [
                {
                    "internalType": "uint256",
                    "name": "proposalId",
                    "type": "uint256"
                },
                {
                    "internalType": "enum socioContract.Vote",
                    "name": "vote",
                    "type": "uint8"
                }
            ],
            "name": "voteOnProposal",
            "outputs": [],
            "stateMutability": "nonpayable",
            "type": "function"
        },
        {
            "inputs": [],
            "name": "withdrawEther",
            "outputs": [],
            "stateMutability": "nonpayable",
            "type": "function"
        },
        {
            "stateMutability": "payable",
            "type": "receive"
        }
    ],
    "bytecode": "608060405260016005553480156200001657600080fd5b50604051620020c2380380620020c2833981016040819052620000399162000225565b620000443362000101565b600e80546001600160a01b038088166001600160a01b031992831617909255600f80548784169216919091179055811662000089576200008362000151565b620000a5565b600380546001600160a01b0319166001600160a01b0383161790555b600b80546001600160a01b0319166001600160a01b038516179055600c620000ce8382620003d4565b50600a620000e6670de0b6b3a76400006001620004a0565b620000f29190620004cc565b60095550620005149350505050565b600080546001600160a01b038381166001600160a01b0319831681178455604051919092169283917f8be0079c531659141344cd1fd0a4f28419497f9722a3daafe3b4186f6b6457e09190a35050565b620001f073c89bd4e1632d3a43cb03aaad5262cbe4038bc5716001600160a01b03166338cc48316040518163ffffffff1660e01b8152600401602060405180830381865afa158015620001a8573d6000803e3d6000fd5b505050506040513d601f19601f82011682018060405250810190620001ce9190620004ef565b600380546001600160a01b0319166001600160a01b0392909216919091179055565b565b80516001600160a01b03811681146200020a57600080fd5b919050565b634e487b7160e01b600052604160045260246000fd5b600080600080600060a086880312156200023e57600080fd5b6200024986620001f2565b945060206200025a818801620001f2565b94506200026a60408801620001f2565b60608801519094506001600160401b03808211156200028857600080fd5b818901915089601f8301126200029d57600080fd5b815181811115620002b257620002b26200020f565b604051601f8201601f19908116603f01168101908382118183101715620002dd57620002dd6200020f565b816040528281528c86848701011115620002f657600080fd5b600093505b828410156200031a5784840186015181850187015292850192620002fb565b60008684830101528097505050505050506200033960808701620001f2565b90509295509295909350565b600181811c908216806200035a57607f821691505b6020821081036200037b57634e487b7160e01b600052602260045260246000fd5b50919050565b601f821115620003cf57600081815260208120601f850160051c81016020861015620003aa5750805b601f850160051c820191505b81811015620003cb57828155600101620003b6565b5050505b505050565b81516001600160401b03811115620003f057620003f06200020f565b620004088162000401845462000345565b8462000381565b602080601f831160018114620004405760008415620004275750858301515b600019600386901b1c1916600185901b178555620003cb565b600085815260208120601f198616915b82811015620004715788860151825594840194600190910190840162000450565b5085821015620004905787850151600019600388901b60f8161c191681555b5050505050600190811b01905550565b8082028115828204841417620004c657634e487b7160e01b600052601160045260246000fd5b92915050565b600082620004ea57634e487b7160e01b600052601260045260246000fd5b500490565b6000602082840312156200050257600080fd5b6200050d82620001f2565b9392505050565b611b9e80620005246000396000f3fe6080604052600436106100eb5760003560e01c8063715018a611610084578063b163cc3811610056578063b163cc381461027f578063e8ddd286146100f2578063efafb22e14610287578063f2fde38b146102a757005b8063715018a6146102005780637362377b146102155780638da5cb5b1461022a578063a888c2cd1461025257005b806337441996116100bd578063374419961461018a578063400e3949146101aa57806342ade784146101c057806349c2a1a6146101e057005b8063013cf08b146100f45780630a9bfef51461012e578063129d5dbb14610164578063313dab201461017757005b366100f257005b005b34801561010057600080fd5b5061011461010f366004611525565b6102c7565b604051610125959493929190611584565b60405180910390f35b34801561013a57600080fd5b506101566101493660046115d2565b6001600160a01b03163190565b604051908152602001610125565b6100f26101723660046115ef565b610381565b34801561018357600080fd5b5047610156565b34801561019657600080fd5b506100f26101a53660046116d0565b6106f2565b3480156101b657600080fd5b5061015660085481565b3480156101cc57600080fd5b506100f26101db366004611717565b61081b565b3480156101ec57600080fd5b506101566101fb366004611717565b61090c565b34801561020c57600080fd5b506100f26109f2565b34801561022157600080fd5b506100f2610a06565b34801561023657600080fd5b506000546040516001600160a01b039091168152602001610125565b34801561025e57600080fd5b5061027261026d366004611525565b610a4b565b604051610125919061174c565b6100f2610af7565b34801561029357600080fd5b506100f26102a236600461175f565b610b82565b3480156102b357600080fd5b506100f26102c23660046115d2565b610d41565b6007602052600090815260409020805481906102e290611793565b80601f016020809104026020016040519081016040528092919081815260200182805461030e90611793565b801561035b5780601f106103305761010080835404028352916020019161035b565b820191906000526020600020905b81548152906001019060200180831161033e57829003601f168201915b505050506001830154600284015460038501546004909501549394919390925060ff1685565b600f546040516370a0823160e01b81523360048201526000916001600160a01b0316906370a0823190602401602060405180830381865afa1580156103ca573d6000803e3d6000fd5b505050506040513d601f19601f820116820180604052508101906103ee91906117c7565b116104145760405162461bcd60e51b815260040161040b906117e0565b60405180910390fd5b60008381526007602052604090206001015483904210156104695760405162461bcd60e51b815260206004820152600f60248201526e70726f706f73616c2061637469766560881b604482015260640161040b565b60008181526007602052604090206004015460ff16156104be5760405162461bcd60e51b815260206004820152601060248201526f185b1c9958591e48195e1958dd5d195960821b604482015260640161040b565b600084815260076020526040902060038101546002820154859110156106dd578060ff1660010361058f573084333110156104f857600080fd5b6000816001600160a01b03163460405160006040518083038185875af1925050503d8060008114610545576040519150601f19603f3d011682016040523d82523d6000602084013e61054a565b606091505b50509050806105885760405162461bcd60e51b815260206004820152600a6024820152697478206661696c65642160b01b604482015260640161040b565b50506106dd565b600e54604080516387fe237760e01b815290516000926001600160a01b0316916387fe23779160048083019260209291908290030181865afa1580156105d9573d6000803e3d6000fd5b505050506040513d601f19601f820116820180604052508101906105fd919061180a565b9050844710156106425760405162461bcd60e51b815260206004820152601060248201526f6e6f7420656e6f7567682066756e647360801b604482015260640161040b565b6000816001600160a01b03168660405160006040518083038185875af1925050503d806000811461068f576040519150601f19603f3d011682016040523d82523d6000602084013e610694565b606091505b50509050806106da5760405162461bcd60e51b81526020600482015260126024820152711d1c985b9cd858dd1a5bdb8819985a5b195960721b604482015260640161040b565b50505b50600401805460ff1916600117905550505050565b60008281526006602052604090205482906001600160a01b0316331461076b5760405162461bcd60e51b815260206004820152602860248201527f536f75726365206d75737420626520746865206f7261636c65206f6620746865604482015267081c995c5d595cdd60c21b606482015260840161040b565b60008181526006602052604080822080546001600160a01b03191690555182917f7cc135e0cebb02c3480ae5d74d377283180a2601f8f644edf7987b009316c63a91a260405183907f85e1543bf2f84fe80c6badbce3648c8539ad1df4d2b3d822938ca0538be727e690600090a2600d80546001810182556000919091527fd7b6990105719101dabeb77144f2a3385c8033acd3af97e9423a695e81ad1eb501610815838261186d565b50505050565b60006108c06108b3600c805461083090611793565b80601f016020809104026020016040519081016040528092919081815260200182805461085c90611793565b80156108a95780601f1061087e576101008083540402835291602001916108a9565b820191906000526020600020905b81548152906001019060200180831161088c57829003601f168201915b5050505050610db7565b631ba20ccb60e11b610dd6565b60408051808201909152600681526530b0b23430b960d11b60208201529091506108ec90829084610dfc565b600b54600954610907916001600160a01b0316908390610e1a565b505050565b600f546040516370a0823160e01b815233600482015260009182916001600160a01b03909116906370a0823190602401602060405180830381865afa158015610959573d6000803e3d6000fd5b505050506040513d601f19601f8201168201806040525081019061097d91906117c7565b1161099a5760405162461bcd60e51b815260040161040b906117e0565b6008546000908152600760205260409020806109b6848261186d565b506109c2426078611943565b6001820155600880549060006109d783611956565b919050555060016008546109eb919061196f565b9392505050565b6109fa610eab565b610a046000610f05565b565b610a0e610eab565b600080546040516001600160a01b03909116914780156108fc02929091818181858888f19350505050158015610a48573d6000803e3d6000fd5b50565b600d8181548110610a5b57600080fd5b906000526020600020016000915090508054610a7690611793565b80601f0160208091040260200160405190810160405280929190818152602001828054610aa290611793565b8015610aef5780601f10610ac457610100808354040283529160200191610aef565b820191906000526020600020905b815481529060010190602001808311610ad257829003601f168201915b505050505081565b6040513090600090829034908381818185875af1925050503d8060008114610b3b576040519150601f19603f3d011682016040523d82523d6000602084013e610b40565b606091505b5050905080610b7e5760405162461bcd60e51b815260206004820152600a6024820152697478206661696c65642160b01b604482015260640161040b565b5050565b600f546040516370a0823160e01b81523360048201526000916001600160a01b0316906370a0823190602401602060405180830381865afa158015610bcb573d6000803e3d6000fd5b505050506040513d601f19601f82011682018060405250810190610bef91906117c7565b11610c0c5760405162461bcd60e51b815260040161040b906117e0565b60008281526007602052604090206001015482904210610c625760405162461bcd60e51b815260206004820152601160248201527050726f706f73616c20496e61637469766560781b604482015260640161040b565b600083815260076020526040808220600f5491516370a0823160e01b81523360048201529092916001600160a01b0316906370a0823190602401602060405180830381865afa158015610cb9573d6000803e3d6000fd5b505050506040513d601f19601f82011682018060405250810190610cdd91906117c7565b905060018115610d39576000856001811115610cfb57610cfb611982565b03610d1f5780836002016000828254610d149190611943565b90915550610d399050565b80836003016000828254610d339190611943565b90915550505b505050505050565b610d49610eab565b6001600160a01b038116610dae5760405162461bcd60e51b815260206004820152602660248201527f4f776e61626c653a206e6577206f776e657220697320746865207a65726f206160448201526564647265737360d01b606482015260840161040b565b610a4881610f05565b805160009082908203610dcd5750600092915050565b50506020015190565b610dde6114ea565b610de66114ea565b610df281853086610f55565b9150505b92915050565b6080830151610e0b9083610f9b565b60808301516109079082610f9b565b600554600090610e2b816001611943565b60055583516040808601516080870151519151600093633c6d41b960e01b93610e61938693849392899160029190602401611998565b60408051601f198184030181529190526020810180516001600160e01b03166001600160e01b0319909316929092179091529050610ea186838684610fb2565b9695505050505050565b6000546001600160a01b03163314610a045760405162461bcd60e51b815260206004820181905260248201527f4f776e61626c653a2063616c6c6572206973206e6f7420746865206f776e6572604482015260640161040b565b600080546001600160a01b038381166001600160a01b0319831681178455604051919092169283917f8be0079c531659141344cd1fd0a4f28419497f9722a3daafe3b4186f6b6457e09190a35050565b610f5d6114ea565b610f6d8560800151610100611110565b50508284526001600160a01b03821660208501526001600160e01b031981166040850152835b949350505050565b610fa88260038351611175565b6109078282611284565b6040516bffffffffffffffffffffffff193060601b1660208201526034810184905260009060540160408051808303601f1901815282825280516020918201206000818152600690925291812080546001600160a01b0319166001600160a01b038a1617905590925082917fb5e6e01e79f91267dc17b4e6314d5d4d03593d2ceee0fbb452b750bd70ea5af99190a2600354604051630200057560e51b81526001600160a01b0390911690634000aea090611075908890879087906004016119ed565b6020604051808303816000875af1158015611094573d6000803e3d6000fd5b505050506040513d601f19601f820116820180604052508101906110b89190611a1d565b610f935760405162461bcd60e51b815260206004820152602360248201527f756e61626c6520746f207472616e73666572416e6443616c6c20746f206f7261604482015262636c6560e81b606482015260840161040b565b604080518082019091526060815260006020820152611130602083611a3f565b1561115857611140602083611a3f565b61114b90602061196f565b6111559083611943565b91505b506020828101829052604080518085526000815290920101905290565b60178167ffffffffffffffff161161119a576108158360e0600585901b1683176112ab565b60ff8167ffffffffffffffff16116111d8576111c1836018611fe0600586901b16176112ab565b506108158367ffffffffffffffff831660016112d0565b61ffff8167ffffffffffffffff161161121757611200836019611fe0600586901b16176112ab565b506108158367ffffffffffffffff831660026112d0565b63ffffffff8167ffffffffffffffff16116112585761124183601a611fe0600586901b16176112ab565b506108158367ffffffffffffffff831660046112d0565b61126d83601b611fe0600586901b16176112ab565b506108158367ffffffffffffffff831660086112d0565b6040805180820190915260608152600060208201526109eb838460000151518485516112f6565b6040805180820190915260608152600060208201526109eb83846000015151846113e0565b604080518082019091526060815260006020820152610f9384856000015151858561143b565b604080518082019091526060815260006020820152825182111561131957600080fd5b60208501516113288386611943565b111561135b5761135b8561134b876020015187866113469190611943565b6114bc565b611356906002611a61565b6114d3565b60008086518051876020830101935080888701111561137a5787860182525b505050602084015b602084106113ba5780518252611399602083611943565b91506113a6602082611943565b90506113b360208561196f565b9350611382565b51815160001960208690036101000a019081169019919091161790525083949350505050565b604080518082019091526060815260006020820152836020015183106114155761141584856020015160026113569190611a61565b8351805160208583010184815350808503611431576001810182525b5093949350505050565b604080518082019091526060815260006020820152602085015161145f8584611943565b1115611473576114738561134b8685611943565b6000600161148384610100611b5c565b61148d919061196f565b90508551838682010185831982511617815250805184870111156114b15783860181525b509495945050505050565b6000818311156114cd575081610df6565b50919050565b81516114df8383611110565b506108158382611284565b6040805160a0810182526000808252602080830182905282840182905260608084018390528451808601909552845283015290608082015290565b60006020828403121561153757600080fd5b5035919050565b6000815180845260005b8181101561156457602081850181015186830182015201611548565b506000602082860101526020601f19601f83011685010191505092915050565b60a08152600061159760a083018861153e565b905085602083015284604083015283606083015282151560808301529695505050505050565b6001600160a01b0381168114610a4857600080fd5b6000602082840312156115e457600080fd5b81356109eb816115bd565b60008060006060848603121561160457600080fd5b83359250602084013560ff8116811461161c57600080fd5b929592945050506040919091013590565b634e487b7160e01b600052604160045260246000fd5b600082601f83011261165457600080fd5b813567ffffffffffffffff8082111561166f5761166f61162d565b604051601f8301601f19908116603f011681019082821181831017156116975761169761162d565b816040528381528660208588010111156116b057600080fd5b836020870160208301376000602085830101528094505050505092915050565b600080604083850312156116e357600080fd5b82359150602083013567ffffffffffffffff81111561170157600080fd5b61170d85828601611643565b9150509250929050565b60006020828403121561172957600080fd5b813567ffffffffffffffff81111561174057600080fd5b610df284828501611643565b6020815260006109eb602083018461153e565b6000806040838503121561177257600080fd5b8235915060208301356002811061178857600080fd5b809150509250929050565b600181811c908216806117a757607f821691505b6020821081036114cd57634e487b7160e01b600052602260045260246000fd5b6000602082840312156117d957600080fd5b5051919050565b60208082526010908201526f2737ba1030902220a79036b2b6b132b960811b604082015260600190565b60006020828403121561181c57600080fd5b81516109eb816115bd565b601f82111561090757600081815260208120601f850160051c8101602086101561184e5750805b601f850160051c820191505b81811015610d395782815560010161185a565b815167ffffffffffffffff8111156118875761188761162d565b61189b816118958454611793565b84611827565b602080601f8311600181146118d057600084156118b85750858301515b600019600386901b1c1916600185901b178555610d39565b600085815260208120601f198616915b828110156118ff578886015182559484019460019091019084016118e0565b508582101561191d5787850151600019600388901b60f8161c191681555b5050505050600190811b01905550565b634e487b7160e01b600052601160045260246000fd5b80820180821115610df657610df661192d565b6000600182016119685761196861192d565b5060010190565b81810381811115610df657610df661192d565b634e487b7160e01b600052602160045260246000fd5b60018060a01b038816815286602082015285604082015263ffffffff60e01b851660608201528360808201528260a082015260e060c082015260006119e060e083018461153e565b9998505050505050505050565b60018060a01b0384168152826020820152606060408201526000611a14606083018461153e565b95945050505050565b600060208284031215611a2f57600080fd5b815180151581146109eb57600080fd5b600082611a5c57634e487b7160e01b600052601260045260246000fd5b500690565b8082028115828204841417610df657610df661192d565b600181815b80851115611ab3578160001904821115611a9957611a9961192d565b80851615611aa657918102915b93841c9390800290611a7d565b509250929050565b600082611aca57506001610df6565b81611ad757506000610df6565b8160018114611aed5760028114611af757611b13565b6001915050610df6565b60ff841115611b0857611b0861192d565b50506001821b610df6565b5060208310610133831016604e8410600b8410161715611b36575081810a610df6565b611b408383611a78565b8060001904821115611b5457611b5461192d565b029392505050565b60006109eb8383611abb56fea2646970667358221220e34361bb440d119142b331ab5db74e33e8cc99fc8b1abd7fd8ca7706b7a4486d64736f6c63430008110033",
    "sourcePath": "d:/Study Material/Socio-dao/Socio-dao/Contracts/contracts/socioContract.sol",
    "compiler": {
        "name": "solc",
        "version": "0.8.17+commit.8df45f5f"
    },
    "functionHashes": {
        "addBalance()": "b163cc38",
        "checkUserBalance(address)": "0a9bfef5",
        "claims(uint256)": "a888c2cd",
        "createIdentity(string)": "42ade784",
        "createProposal(string)": "49c2a1a6",
        "executeProposal(uint256,uint8,uint256)": "129d5dbb",
        "fulfill(bytes32,string)": "37441996",
        "numProposals()": "400e3949",
        "owner()": "8da5cb5b",
        "proposals(uint256)": "013cf08b",
        "purchaseProperty()": "e8ddd286",
        "renounceOwnership()": "715018a6",
        "transferOwnership(address)": "f2fde38b",
        "treasuryBalance()": "313dab20",
        "voteOnProposal(uint256,uint8)": "efafb22e",
        "withdrawEther()": "7362377b"
    },
    "gasEstimates": {
        "creation": {
            "codeDepositCost": "1414000",
            "executionCost": "infinite",
            "totalCost": "infinite"
        },
        "external": {
            "": "185",
            "addBalance()": "infinite",
            "checkUserBalance(address)": "3008",
            "claims(uint256)": "infinite",
            "createIdentity(string)": "infinite",
            "createProposal(string)": "infinite",
            "executeProposal(uint256,uint8,uint256)": "infinite",
            "fulfill(bytes32,string)": "infinite",
            "numProposals()": "2340",
            "owner()": "2368",
            "proposals(uint256)": "infinite",
            "purchaseProperty()": "140",
            "renounceOwnership()": "infinite",
            "transferOwnership(address)": "infinite",
            "treasuryBalance()": "284",
            "voteOnProposal(uint256,uint8)": "infinite",
            "withdrawEther()": "infinite"
        },
        "internal": {
            "stringToBytes32(string memory)": "infinite"
        }
    }
}